{
  "abi": [
    {
      "type": "constructor",
      "inputs": [
        {
          "name": "_gohoTokenAddress",
          "type": "address",
          "internalType": "address"
        }
      ],
      "stateMutability": "nonpayable"
    },
    {
      "type": "function",
      "name": "GOHO",
      "inputs": [],
      "outputs": [
        {
          "name": "",
          "type": "address",
          "internalType": "contract IERC20"
        }
      ],
      "stateMutability": "view"
    },
    {
      "type": "function",
      "name": "MAX_POLL_DURATION",
      "inputs": [],
      "outputs": [
        {
          "name": "",
          "type": "uint256",
          "internalType": "uint256"
        }
      ],
      "stateMutability": "view"
    },
    {
      "type": "function",
      "name": "MINIMUM_GOHO_TO_CREATE_POLL",
      "inputs": [],
      "outputs": [
        {
          "name": "",
          "type": "uint256",
          "internalType": "uint256"
        }
      ],
      "stateMutability": "view"
    },
    {
      "type": "function",
      "name": "MINIMUM_GOHO_TO_VOTE",
      "inputs": [],
      "outputs": [
        {
          "name": "",
          "type": "uint256",
          "internalType": "uint256"
        }
      ],
      "stateMutability": "view"
    },
    {
      "type": "function",
      "name": "closePoll",
      "inputs": [
        {
          "name": "_pollId",
          "type": "uint256",
          "internalType": "uint256"
        }
      ],
      "outputs": [],
      "stateMutability": "nonpayable"
    },
    {
      "type": "function",
      "name": "closePollAdmin",
      "inputs": [
        {
          "name": "_pollId",
          "type": "uint256",
          "internalType": "uint256"
        }
      ],
      "outputs": [],
      "stateMutability": "nonpayable"
    },
    {
      "type": "function",
      "name": "createPoll",
      "inputs": [
        {
          "name": "_description",
          "type": "string",
          "internalType": "string"
        },
        {
          "name": "_optionDescriptions",
          "type": "string[]",
          "internalType": "string[]"
        },
        {
          "name": "_durationInDays",
          "type": "uint256",
          "internalType": "uint256"
        }
      ],
      "outputs": [],
      "stateMutability": "nonpayable"
    },
    {
      "type": "function",
      "name": "getPollCount",
      "inputs": [],
      "outputs": [
        {
          "name": "",
          "type": "uint256",
          "internalType": "uint256"
        }
      ],
      "stateMutability": "view"
    },
    {
      "type": "function",
      "name": "getPollDetails",
      "inputs": [
        {
          "name": "_pollId",
          "type": "uint256",
          "internalType": "uint256"
        },
        {
          "name": "_offset",
          "type": "uint256",
          "internalType": "uint256"
        },
        {
          "name": "_limit",
          "type": "uint256",
          "internalType": "uint256"
        }
      ],
      "outputs": [
        {
          "name": "id",
          "type": "uint256",
          "internalType": "uint256"
        },
        {
          "name": "creator",
          "type": "address",
          "internalType": "address"
        },
        {
          "name": "description",
          "type": "string",
          "internalType": "string"
        },
        {
          "name": "optionDescriptions",
          "type": "string[]",
          "internalType": "string[]"
        },
        {
          "name": "optionVoteCounts",
          "type": "uint256[]",
          "internalType": "uint256[]"
        },
        {
          "name": "deadline",
          "type": "uint256",
          "internalType": "uint256"
        },
        {
          "name": "active",
          "type": "bool",
          "internalType": "bool"
        },
        {
          "name": "totalVotePowerCast",
          "type": "uint256",
          "internalType": "uint256"
        },
        {
          "name": "totalOptions",
          "type": "uint256",
          "internalType": "uint256"
        }
      ],
      "stateMutability": "view"
    },
    {
      "type": "function",
      "name": "hasVoted",
      "inputs": [
        {
          "name": "_pollId",
          "type": "uint256",
          "internalType": "uint256"
        },
        {
          "name": "_voter",
          "type": "address",
          "internalType": "address"
        }
      ],
      "outputs": [
        {
          "name": "",
          "type": "bool",
          "internalType": "bool"
        }
      ],
      "stateMutability": "view"
    },
    {
      "type": "function",
      "name": "nextPollId",
      "inputs": [],
      "outputs": [
        {
          "name": "",
          "type": "uint256",
          "internalType": "uint256"
        }
      ],
      "stateMutability": "view"
    },
    {
      "type": "function",
      "name": "owner",
      "inputs": [],
      "outputs": [
        {
          "name": "",
          "type": "address",
          "internalType": "address"
        }
      ],
      "stateMutability": "view"
    },
    {
      "type": "function",
      "name": "polls",
      "inputs": [
        {
          "name": "",
          "type": "uint256",
          "internalType": "uint256"
        }
      ],
      "outputs": [
        {
          "name": "id",
          "type": "uint256",
          "internalType": "uint256"
        },
        {
          "name": "creator",
          "type": "address",
          "internalType": "address"
        },
        {
          "name": "description",
          "type": "string",
          "internalType": "string"
        },
        {
          "name": "deadline",
          "type": "uint256",
          "internalType": "uint256"
        },
        {
          "name": "active",
          "type": "bool",
          "internalType": "bool"
        },
        {
          "name": "totalVotePowerCast",
          "type": "uint256",
          "internalType": "uint256"
        }
      ],
      "stateMutability": "view"
    },
    {
      "type": "function",
      "name": "renounceOwnership",
      "inputs": [],
      "outputs": [],
      "stateMutability": "nonpayable"
    },
    {
      "type": "function",
      "name": "transferOwnership",
      "inputs": [
        {
          "name": "newOwner",
          "type": "address",
          "internalType": "address"
        }
      ],
      "outputs": [],
      "stateMutability": "nonpayable"
    },
    {
      "type": "function",
      "name": "vote",
      "inputs": [
        {
          "name": "_pollId",
          "type": "uint256",
          "internalType": "uint256"
        },
        {
          "name": "_optionId",
          "type": "uint256",
          "internalType": "uint256"
        }
      ],
      "outputs": [],
      "stateMutability": "nonpayable"
    },
    {
      "type": "event",
      "name": "OwnershipTransferred",
      "inputs": [
        {
          "name": "previousOwner",
          "type": "address",
          "indexed": true,
          "internalType": "address"
        },
        {
          "name": "newOwner",
          "type": "address",
          "indexed": true,
          "internalType": "address"
        }
      ],
      "anonymous": false
    },
    {
      "type": "event",
      "name": "PollClosed",
      "inputs": [
        {
          "name": "pollId",
          "type": "uint256",
          "indexed": true,
          "internalType": "uint256"
        }
      ],
      "anonymous": false
    },
    {
      "type": "event",
      "name": "PollCreated",
      "inputs": [
        {
          "name": "pollId",
          "type": "uint256",
          "indexed": true,
          "internalType": "uint256"
        },
        {
          "name": "creator",
          "type": "address",
          "indexed": true,
          "internalType": "address"
        },
        {
          "name": "description",
          "type": "string",
          "indexed": false,
          "internalType": "string"
        },
        {
          "name": "deadline",
          "type": "uint256",
          "indexed": false,
          "internalType": "uint256"
        }
      ],
      "anonymous": false
    },
    {
      "type": "event",
      "name": "Voted",
      "inputs": [
        {
          "name": "pollId",
          "type": "uint256",
          "indexed": true,
          "internalType": "uint256"
        },
        {
          "name": "voter",
          "type": "address",
          "indexed": true,
          "internalType": "address"
        },
        {
          "name": "optionId",
          "type": "uint256",
          "indexed": false,
          "internalType": "uint256"
        },
        {
          "name": "votePower",
          "type": "uint256",
          "indexed": false,
          "internalType": "uint256"
        }
      ],
      "anonymous": false
    },
    {
      "type": "error",
      "name": "OwnableInvalidOwner",
      "inputs": [
        {
          "name": "owner",
          "type": "address",
          "internalType": "address"
        }
      ]
    },
    {
      "type": "error",
      "name": "OwnableUnauthorizedAccount",
      "inputs": [
        {
          "name": "account",
          "type": "address",
          "internalType": "address"
        }
      ]
    },
    {
      "type": "error",
      "name": "ReentrancyGuardReentrantCall",
      "inputs": []
    }
  ],
  "bytecode": {
    "object": "0x60a060405234801561000f575f5ffd5b506040516119bf3803806119bf83398101604081905261002e91610127565b338061005457604051631e4fbdf760e01b81525f60048201526024015b60405180910390fd5b61005d816100d8565b50600180556001600160a01b0381166100c75760405162461bcd60e51b815260206004820152602660248201527f476f686f566f74696e673a20456e64657265636f20646f20746f6b656e20696e60448201526576616c69646f60d01b606482015260840161004b565b6001600160a01b0316608052610154565b5f80546001600160a01b038381166001600160a01b0319831681178455604051919092169283917f8be0079c531659141344cd1fd0a4f28419497f9722a3daafe3b4186f6b6457e09190a35050565b5f60208284031215610137575f5ffd5b81516001600160a01b038116811461014d575f5ffd5b9392505050565b60805161183e6101815f395f818161021401528181610575015281816107eb0152610cfa015261183e5ff3fe608060405234801561000f575f5ffd5b50600436106100fb575f3560e01c8063ac2f007411610093578063e4c2d99911610063578063e4c2d9991461020f578063e81aab6614610142578063f2fde38b14610236578063f8c860f414610249575f5ffd5b8063ac2f0074146101a5578063b384abef146101ca578063b6b76ad1146101dd578063e238b76414610205575f5ffd5b8063715018a6116100ce578063715018a6146101515780638da5cb5b1461015b57806392d0f9471461017f5780639534e63714610192575f5ffd5b806311a52746146100ff5780632b78657114610116578063438596321461011f57806344a6a10c14610142575b5f5ffd5b6002545b6040519081526020015b60405180910390f35b61010360025481565b61013261012d3660046111cc565b61025c565b604051901515815260200161010d565b610103670de0b6b3a764000081565b6101596102cb565b005b5f546001600160a01b03165b6040516001600160a01b03909116815260200161010d565b61015961018d3660046111f6565b6102de565b6101596101a03660046111f6565b61037b565b6101b86101b33660046111f6565b610484565b60405161010d9695949392919061123b565b6101596101d8366004611282565b61054e565b6101f06101eb3660046112a2565b610978565b60405161010d99989796959493929190611305565b61010362278d0081565b6101677f000000000000000000000000000000000000000000000000000000000000000081565b6101596102443660046113ca565b610c99565b61015961025736600461149b565b610cd3565b5f828152600360205260408120600101546001600160a01b031661029b5760405162461bcd60e51b81526004016102929061159b565b60405180910390fd5b505f8281526003602090815260408083206001600160a01b038516845260060190915290205460ff165b92915050565b6102d361110c565b6102dc5f611138565b565b6102e661110c565b5f81815260036020526040902060018101546001600160a01b031661031d5760405162461bcd60e51b81526004016102929061159b565b600581015460ff166103415760405162461bcd60e51b8152600401610292906115d2565b60058101805460ff1916905560405182907f703c67c157a1afb7d386ce5212ee88bf0a690bca998060e9595ebdfd747100ce905f90a25050565b610383611187565b5f81815260036020526040902060018101546001600160a01b03166103ba5760405162461bcd60e51b81526004016102929061159b565b600581015460ff166103de5760405162461bcd60e51b8152600401610292906115d2565b80600401544210156104415760405162461bcd60e51b815260206004820152602660248201527f476f686f566f74696e673a20456e71756574652061696e6461206e616f20656e604482015265636572726f7560d01b6064820152608401610292565b60058101805460ff1916905560405182907f703c67c157a1afb7d386ce5212ee88bf0a690bca998060e9595ebdfd747100ce905f90a25061048160018055565b50565b60036020525f908152604090208054600182015460028301805492936001600160a01b03909216926104b590611615565b80601f01602080910402602001604051908101604052809291908181526020018280546104e190611615565b801561052c5780601f106105035761010080835404028352916020019161052c565b820191905f5260205f20905b81548152906001019060200180831161050f57829003601f168201915b50505050600483015460058401546007909401549293909260ff909116915086565b610556611187565b6040516370a0823160e01b8152336004820152670de0b6b3a7640000907f00000000000000000000000000000000000000000000000000000000000000006001600160a01b0316906370a0823190602401602060405180830381865afa1580156105c2573d5f5f3e3d5ffd5b505050506040513d601f19601f820116820180604052508101906105e6919061164d565b101561064b5760405162461bcd60e51b815260206004820152602e60248201527f476f686f566f74696e673a2053616c646f20474f484f20696e7375666963696560448201526d373a32903830b930903b37ba30b960911b6064820152608401610292565b5f82815260036020526040902060018101546001600160a01b03166106825760405162461bcd60e51b81526004016102929061159b565b600581015460ff166106d65760405162461bcd60e51b815260206004820152601b60248201527f476f686f566f74696e673a20456e717565746520696e617469766100000000006044820152606401610292565b806004015442106107295760405162461bcd60e51b815260206004820152601d60248201527f476f686f566f74696e673a20456e717565746520656e636572726164610000006044820152606401610292565b335f90815260068201602052604090205460ff16156107815760405162461bcd60e51b8152602060048201526014602482015273476f686f566f74696e673a204a6120766f746f7560601b6044820152606401610292565b600381015482106107d45760405162461bcd60e51b815260206004820152601a60248201527f476f686f566f74696e673a204f7063616f20696e76616c6964610000000000006044820152606401610292565b6040516370a0823160e01b81523360048201525f907f00000000000000000000000000000000000000000000000000000000000000006001600160a01b0316906370a0823190602401602060405180830381865afa158015610838573d5f5f3e3d5ffd5b505050506040513d601f19601f8201168201806040525081019061085c919061164d565b90505f81116108bc5760405162461bcd60e51b815260206004820152602660248201527f476f686f566f74696e673a2053656d20706f64657220646520766f746f20283060448201526520474f484f2960d01b6064820152608401610292565b335f9081526006830160205260409020805460ff19166001179055600382018054829190859081106108f0576108f0611664565b905f5260205f2090600202016001015f82825461090d919061168c565b9250508190555080826007015f828254610927919061168c565b90915550506040805184815260208101839052339186917fb4c54afd73915f9f756c8dee39fe0b311937871a92261a47747f7a3d32f63a0c910160405180910390a3505061097460018055565b5050565b5f838152600360205260408120600181015482916060918291829185918291829182916001600160a01b03166109c05760405162461bcd60e51b81526004016102929061159b565b600381015491508a828d106109d657505f6109f4565b6109e08d8461169f565b8111156109f4576109f18d8461169f565b90505b8067ffffffffffffffff811115610a0d57610a0d6113ea565b604051908082528060200260200182016040528015610a4057816020015b6060815260200190600190039081610a2b5790505b5097508067ffffffffffffffff811115610a5c57610a5c6113ea565b604051908082528060200260200182016040528015610a85578160200160208202803683370190505b5096505f5b81811015610bb3575f818f610a9f919061168c565b9050836003018181548110610ab657610ab6611664565b905f5260205f2090600202015f018054610acf90611615565b80601f0160208091040260200160405190810160405280929190818152602001828054610afb90611615565b8015610b465780601f10610b1d57610100808354040283529160200191610b46565b820191905f5260205f20905b815481529060010190602001808311610b2957829003601f168201915b50505050508a8381518110610b5d57610b5d611664565b6020026020010181905250836003018181548110610b7d57610b7d611664565b905f5260205f20906002020160010154898381518110610b9f57610b9f611664565b602090810291909101015250600101610a8a565b50815460018301546004840154600585015460078601546002870180546001600160a01b039095169490938e938e93919260ff90911691908b908790610bf890611615565b80601f0160208091040260200160405190810160405280929190818152602001828054610c2490611615565b8015610c6f5780601f10610c4657610100808354040283529160200191610c6f565b820191905f5260205f20905b815481529060010190602001808311610c5257829003601f168201915b505050505096509a509a509a509a509a509a509a509a509a50505093979b92969a50939750939750565b610ca161110c565b6001600160a01b038116610cca57604051631e4fbdf760e01b81525f6004820152602401610292565b61048181611138565b610cdb611187565b6040516370a0823160e01b8152336004820152670de0b6b3a7640000907f00000000000000000000000000000000000000000000000000000000000000006001600160a01b0316906370a0823190602401602060405180830381865afa158015610d47573d5f5f3e3d5ffd5b505050506040513d601f19601f82011682018060405250810190610d6b919061164d565b1015610dd05760405162461bcd60e51b815260206004820152602e60248201527f476f686f566f74696e673a2053616c646f20474f484f20696e7375666963696560448201526d373a32903830b9309031b934b0b960911b6064820152608401610292565b5f835111610e2f5760405162461bcd60e51b815260206004820152602660248201527f476f686f566f74696e673a2044657363726963616f20646120656e71756574656044820152652076617a696160d01b6064820152608401610292565b600282511015610e815760405162461bcd60e51b815260206004820152601b60248201527f476f686f566f74696e673a204d696e696d6f2032206f70636f657300000000006044820152606401610292565b6001811015610ede5760405162461bcd60e51b815260206004820152602360248201527f476f686f566f74696e673a204475726163616f206d696e696d6120646520312060448201526264696160e81b6064820152608401610292565b62278d00610eef82620151806116b2565b1115610f3d5760405162461bcd60e51b815260206004820152601f60248201527f476f686f566f74696e673a204475726163616f206d7569746f206c6f6e6761006044820152606401610292565b5f5b8251811015610fc5575f838281518110610f5b57610f5b611664565b60200260200101515111610fbd5760405162461bcd60e51b8152602060048201526024808201527f476f686f566f74696e673a2044657363726963616f206461206f7063616f2076604482015263617a696160e01b6064820152608401610292565b600101610f3f565b50600280545f8181526003602052604090208181556001810180546001600160a01b0319163317905590918101610ffc8682611714565b5061100a83620151806116b2565b611014904261168c565b600482015560058101805460ff191660011790555f5b845181101561109f5781600301604051806040016040528087848151811061105457611054611664565b60209081029190910181015182525f91810182905283546001810185559382529020815191926002020190819061108b9082611714565b50602091909101516001918201550161102a565b5060028054905f6110af836117cf565b9190505550336001600160a01b0316827f9dbafd4116dcead87280b4bad16e92c851a647fbf87a77e05cf6b29c8fcdc33c8784600401546040516110f49291906117e7565b60405180910390a3505061110760018055565b505050565b5f546001600160a01b031633146102dc5760405163118cdaa760e01b8152336004820152602401610292565b5f80546001600160a01b038381166001600160a01b0319831681178455604051919092169283917f8be0079c531659141344cd1fd0a4f28419497f9722a3daafe3b4186f6b6457e09190a35050565b6002600154036111aa57604051633ee5aeb560e01b815260040160405180910390fd5b6002600155565b80356001600160a01b03811681146111c7575f5ffd5b919050565b5f5f604083850312156111dd575f5ffd5b823591506111ed602084016111b1565b90509250929050565b5f60208284031215611206575f5ffd5b5035919050565b5f81518084528060208401602086015e5f602082860101526020601f19601f83011685010191505092915050565b8681526001600160a01b038616602082015260c0604082018190525f906112649083018761120d565b606083019590955250911515608083015260a0909101529392505050565b5f5f60408385031215611293575f5ffd5b50508035926020909101359150565b5f5f5f606084860312156112b4575f5ffd5b505081359360208301359350604090920135919050565b5f8151808452602084019350602083015f5b828110156112fb5781518652602095860195909101906001016112dd565b5093949350505050565b8981526001600160a01b0389166020820152610120604082018190525f9061132f9083018a61120d565b828103606084015280895180835260208301915060208160051b84010160208c015f5b8381101561138457601f1986840301855261136e83835161120d565b6020958601959093509190910190600101611352565b50508581036080870152611398818c6112cb565b9450505050508560a08301526113b260c083018615159052565b60e08201939093526101000152979650505050505050565b5f602082840312156113da575f5ffd5b6113e3826111b1565b9392505050565b634e487b7160e01b5f52604160045260245ffd5b604051601f8201601f1916810167ffffffffffffffff81118282101715611427576114276113ea565b604052919050565b5f82601f83011261143e575f5ffd5b813567ffffffffffffffff811115611458576114586113ea565b61146b601f8201601f19166020016113fe565b81815284602083860101111561147f575f5ffd5b816020850160208301375f918101602001919091529392505050565b5f5f5f606084860312156114ad575f5ffd5b833567ffffffffffffffff8111156114c3575f5ffd5b6114cf8682870161142f565b935050602084013567ffffffffffffffff8111156114eb575f5ffd5b8401601f810186136114fb575f5ffd5b803567ffffffffffffffff811115611515576115156113ea565b8060051b611525602082016113fe565b91825260208184018101929081019089841115611540575f5ffd5b6020850192505b8383101561158657823567ffffffffffffffff811115611565575f5ffd5b6115748b60208389010161142f565b83525060209283019290910190611547565b96999698505050506040949094013593505050565b6020808252601e908201527f476f686f566f74696e673a20456e7175657465206e616f206578697374650000604082015260600190565b60208082526023908201527f476f686f566f74696e673a20456e7175657465206a61206573746120696e617460408201526269766160e81b606082015260800190565b600181811c9082168061162957607f821691505b60208210810361164757634e487b7160e01b5f52602260045260245ffd5b50919050565b5f6020828403121561165d575f5ffd5b5051919050565b634e487b7160e01b5f52603260045260245ffd5b634e487b7160e01b5f52601160045260245ffd5b808201808211156102c5576102c5611678565b818103818111156102c5576102c5611678565b80820281158282048414176102c5576102c5611678565b601f82111561110757805f5260205f20601f840160051c810160208510156116ee5750805b601f840160051c820191505b8181101561170d575f81556001016116fa565b5050505050565b815167ffffffffffffffff81111561172e5761172e6113ea565b6117428161173c8454611615565b846116c9565b6020601f821160018114611774575f831561175d5750848201515b5f19600385901b1c1916600184901b17845561170d565b5f84815260208120601f198516915b828110156117a35787850151825560209485019460019092019101611783565b50848210156117c057868401515f19600387901b60f8161c191681555b50505050600190811b01905550565b5f600182016117e0576117e0611678565b5060010190565b604081525f6117f9604083018561120d565b9050826020830152939250505056fea26469706673582212204e84a7a5d7801aa07dc1ad022a7aa4e765822f5dda9ae90fedd2927146df762264736f6c634300081c0033",
    "linkReferences": {}
  },
  "methodIdentifiers": {
    "GOHO()": "e4c2d999",
    "MAX_POLL_DURATION()": "e238b764",
    "MINIMUM_GOHO_TO_CREATE_POLL()": "e81aab66",
    "MINIMUM_GOHO_TO_VOTE()": "44a6a10c",
    "closePoll(uint256)": "9534e637",
    "closePollAdmin(uint256)": "92d0f947",
    "createPoll(string,string[],uint256)": "f8c860f4",
    "getPollCount()": "11a52746",
    "getPollDetails(uint256,uint256,uint256)": "b6b76ad1",
    "hasVoted(uint256,address)": "43859632",
    "nextPollId()": "2b786571",
    "owner()": "8da5cb5b",
    "polls(uint256)": "ac2f0074",
    "renounceOwnership()": "715018a6",
    "transferOwnership(address)": "f2fde38b",
    "vote(uint256,uint256)": "b384abef"
  },
  "id": 20
}