{
  "abi": [
    {
      "type": "constructor",
      "inputs": [
        {
          "name": "_gohoTokenAddress",
          "type": "address",
          "internalType": "address"
        }
      ],
      "stateMutability": "nonpayable"
    },
    {
      "type": "function",
      "name": "GOHO",
      "inputs": [],
      "outputs": [
        {
          "name": "",
          "type": "address",
          "internalType": "contract IERC20"
        }
      ],
      "stateMutability": "view"
    },
    {
      "type": "function",
      "name": "MAX_POLL_DURATION",
      "inputs": [],
      "outputs": [
        {
          "name": "",
          "type": "uint256",
          "internalType": "uint256"
        }
      ],
      "stateMutability": "view"
    },
    {
      "type": "function",
      "name": "MINIMUM_GOHO_TO_CREATE_POLL",
      "inputs": [],
      "outputs": [
        {
          "name": "",
          "type": "uint256",
          "internalType": "uint256"
        }
      ],
      "stateMutability": "view"
    },
    {
      "type": "function",
      "name": "MINIMUM_GOHO_TO_VOTE",
      "inputs": [],
      "outputs": [
        {
          "name": "",
          "type": "uint256",
          "internalType": "uint256"
        }
      ],
      "stateMutability": "view"
    },
    {
      "type": "function",
      "name": "closePoll",
      "inputs": [
        {
          "name": "_pollId",
          "type": "uint256",
          "internalType": "uint256"
        }
      ],
      "outputs": [],
      "stateMutability": "nonpayable"
    },
    {
      "type": "function",
      "name": "closePollAdmin",
      "inputs": [
        {
          "name": "_pollId",
          "type": "uint256",
          "internalType": "uint256"
        }
      ],
      "outputs": [],
      "stateMutability": "nonpayable"
    },
    {
      "type": "function",
      "name": "createPoll",
      "inputs": [
        {
          "name": "_title",
          "type": "string",
          "internalType": "string"
        },
        {
          "name": "_description",
          "type": "string",
          "internalType": "string"
        },
        {
          "name": "_optionDescriptions",
          "type": "string[]",
          "internalType": "string[]"
        },
        {
          "name": "_durationInDays",
          "type": "uint256",
          "internalType": "uint256"
        }
      ],
      "outputs": [],
      "stateMutability": "nonpayable"
    },
    {
      "type": "function",
      "name": "getPollCount",
      "inputs": [],
      "outputs": [
        {
          "name": "",
          "type": "uint256",
          "internalType": "uint256"
        }
      ],
      "stateMutability": "view"
    },
    {
      "type": "function",
      "name": "getPollDetails",
      "inputs": [
        {
          "name": "_pollId",
          "type": "uint256",
          "internalType": "uint256"
        },
        {
          "name": "_offset",
          "type": "uint256",
          "internalType": "uint256"
        },
        {
          "name": "_limit",
          "type": "uint256",
          "internalType": "uint256"
        }
      ],
      "outputs": [
        {
          "name": "id",
          "type": "uint256",
          "internalType": "uint256"
        },
        {
          "name": "creator",
          "type": "address",
          "internalType": "address"
        },
        {
          "name": "description",
          "type": "string",
          "internalType": "string"
        },
        {
          "name": "optionDescriptions",
          "type": "string[]",
          "internalType": "string[]"
        },
        {
          "name": "optionVoteCounts",
          "type": "uint256[]",
          "internalType": "uint256[]"
        },
        {
          "name": "deadline",
          "type": "uint256",
          "internalType": "uint256"
        },
        {
          "name": "active",
          "type": "bool",
          "internalType": "bool"
        },
        {
          "name": "totalVotePowerCast",
          "type": "uint256",
          "internalType": "uint256"
        },
        {
          "name": "totalOptions",
          "type": "uint256",
          "internalType": "uint256"
        }
      ],
      "stateMutability": "view"
    },
    {
      "type": "function",
      "name": "hasVoted",
      "inputs": [
        {
          "name": "_pollId",
          "type": "uint256",
          "internalType": "uint256"
        },
        {
          "name": "_voter",
          "type": "address",
          "internalType": "address"
        }
      ],
      "outputs": [
        {
          "name": "",
          "type": "bool",
          "internalType": "bool"
        }
      ],
      "stateMutability": "view"
    },
    {
      "type": "function",
      "name": "nextPollId",
      "inputs": [],
      "outputs": [
        {
          "name": "",
          "type": "uint256",
          "internalType": "uint256"
        }
      ],
      "stateMutability": "view"
    },
    {
      "type": "function",
      "name": "owner",
      "inputs": [],
      "outputs": [
        {
          "name": "",
          "type": "address",
          "internalType": "address"
        }
      ],
      "stateMutability": "view"
    },
    {
      "type": "function",
      "name": "polls",
      "inputs": [
        {
          "name": "",
          "type": "uint256",
          "internalType": "uint256"
        }
      ],
      "outputs": [
        {
          "name": "id",
          "type": "uint256",
          "internalType": "uint256"
        },
        {
          "name": "creator",
          "type": "address",
          "internalType": "address"
        },
        {
          "name": "title",
          "type": "string",
          "internalType": "string"
        },
        {
          "name": "description",
          "type": "string",
          "internalType": "string"
        },
        {
          "name": "deadline",
          "type": "uint256",
          "internalType": "uint256"
        },
        {
          "name": "active",
          "type": "bool",
          "internalType": "bool"
        },
        {
          "name": "totalVotePowerCast",
          "type": "uint256",
          "internalType": "uint256"
        }
      ],
      "stateMutability": "view"
    },
    {
      "type": "function",
      "name": "renounceOwnership",
      "inputs": [],
      "outputs": [],
      "stateMutability": "nonpayable"
    },
    {
      "type": "function",
      "name": "transferOwnership",
      "inputs": [
        {
          "name": "newOwner",
          "type": "address",
          "internalType": "address"
        }
      ],
      "outputs": [],
      "stateMutability": "nonpayable"
    },
    {
      "type": "function",
      "name": "vote",
      "inputs": [
        {
          "name": "_pollId",
          "type": "uint256",
          "internalType": "uint256"
        },
        {
          "name": "_optionId",
          "type": "uint256",
          "internalType": "uint256"
        }
      ],
      "outputs": [],
      "stateMutability": "nonpayable"
    },
    {
      "type": "event",
      "name": "OwnershipTransferred",
      "inputs": [
        {
          "name": "previousOwner",
          "type": "address",
          "indexed": true,
          "internalType": "address"
        },
        {
          "name": "newOwner",
          "type": "address",
          "indexed": true,
          "internalType": "address"
        }
      ],
      "anonymous": false
    },
    {
      "type": "event",
      "name": "PollClosed",
      "inputs": [
        {
          "name": "pollId",
          "type": "uint256",
          "indexed": true,
          "internalType": "uint256"
        }
      ],
      "anonymous": false
    },
    {
      "type": "event",
      "name": "PollCreated",
      "inputs": [
        {
          "name": "pollId",
          "type": "uint256",
          "indexed": true,
          "internalType": "uint256"
        },
        {
          "name": "creator",
          "type": "address",
          "indexed": true,
          "internalType": "address"
        },
        {
          "name": "description",
          "type": "string",
          "indexed": false,
          "internalType": "string"
        },
        {
          "name": "deadline",
          "type": "uint256",
          "indexed": false,
          "internalType": "uint256"
        }
      ],
      "anonymous": false
    },
    {
      "type": "event",
      "name": "Voted",
      "inputs": [
        {
          "name": "pollId",
          "type": "uint256",
          "indexed": true,
          "internalType": "uint256"
        },
        {
          "name": "voter",
          "type": "address",
          "indexed": true,
          "internalType": "address"
        },
        {
          "name": "optionId",
          "type": "uint256",
          "indexed": false,
          "internalType": "uint256"
        },
        {
          "name": "votePower",
          "type": "uint256",
          "indexed": false,
          "internalType": "uint256"
        }
      ],
      "anonymous": false
    },
    {
      "type": "error",
      "name": "OwnableInvalidOwner",
      "inputs": [
        {
          "name": "owner",
          "type": "address",
          "internalType": "address"
        }
      ]
    },
    {
      "type": "error",
      "name": "OwnableUnauthorizedAccount",
      "inputs": [
        {
          "name": "account",
          "type": "address",
          "internalType": "address"
        }
      ]
    },
    {
      "type": "error",
      "name": "ReentrancyGuardReentrantCall",
      "inputs": []
    }
  ],
  "bytecode": {
    "object": "0x60a060405234801561000f575f5ffd5b50604051611a99380380611a9983398101604081905261002e91610127565b338061005457604051631e4fbdf760e01b81525f60048201526024015b60405180910390fd5b61005d816100d8565b50600180556001600160a01b0381166100c75760405162461bcd60e51b815260206004820152602660248201527f476f686f566f74696e673a20456e64657265636f20646f20746f6b656e20696e60448201526576616c69646f60d01b606482015260840161004b565b6001600160a01b0316608052610154565b5f80546001600160a01b038381166001600160a01b0319831681178455604051919092169283917f8be0079c531659141344cd1fd0a4f28419497f9722a3daafe3b4186f6b6457e09190a35050565b5f60208284031215610137575f5ffd5b81516001600160a01b038116811461014d575f5ffd5b9392505050565b6080516119186101815f395f81816102280152818161060201528181610a4b0152610cc101526119185ff3fe608060405234801561000f575f5ffd5b50600436106100fb575f3560e01c8063ac2f007411610093578063e238b76411610063578063e238b76414610219578063e4c2d99914610223578063e81aab6614610142578063f2fde38b1461024a575f5ffd5b8063ac2f0074146101a5578063ad0f04a9146101cb578063b384abef146101de578063b6b76ad1146101f1575f5ffd5b8063715018a6116100ce578063715018a6146101515780638da5cb5b1461015b57806392d0f9471461017f5780639534e63714610192575f5ffd5b806311a52746146100ff5780632b78657114610116578063438596321461011f57806344a6a10c14610142575b5f5ffd5b6002545b6040519081526020015b60405180910390f35b61010360025481565b61013261012d366004611269565b61025d565b604051901515815260200161010d565b610103670de0b6b3a764000081565b6101596102cc565b005b5f546001600160a01b03165b6040516001600160a01b03909116815260200161010d565b61015961018d366004611293565b6102df565b6101596101a0366004611293565b61037c565b6101b86101b3366004611293565b610485565b60405161010d97969594939291906112d8565b6101596101d93660046113e4565b6105db565b6101596101ec36600461150c565b610a24565b6102046101ff36600461152c565b610e4e565b60405161010d9998979695949392919061158f565b61010362278d0081565b6101677f000000000000000000000000000000000000000000000000000000000000000081565b610159610258366004611654565b61116f565b5f828152600360205260408120600101546001600160a01b031661029c5760405162461bcd60e51b815260040161029390611674565b60405180910390fd5b505f8281526003602090815260408083206001600160a01b038516845260070190915290205460ff165b92915050565b6102d46111a9565b6102dd5f6111d5565b565b6102e76111a9565b5f81815260036020526040902060018101546001600160a01b031661031e5760405162461bcd60e51b815260040161029390611674565b600681015460ff166103425760405162461bcd60e51b8152600401610293906116ab565b60068101805460ff1916905560405182907f703c67c157a1afb7d386ce5212ee88bf0a690bca998060e9595ebdfd747100ce905f90a25050565b610384611224565b5f81815260036020526040902060018101546001600160a01b03166103bb5760405162461bcd60e51b815260040161029390611674565b600681015460ff166103df5760405162461bcd60e51b8152600401610293906116ab565b80600501544210156104425760405162461bcd60e51b815260206004820152602660248201527f476f686f566f74696e673a20456e71756574652061696e6461206e616f20656e604482015265636572726f7560d01b6064820152608401610293565b60068101805460ff1916905560405182907f703c67c157a1afb7d386ce5212ee88bf0a690bca998060e9595ebdfd747100ce905f90a25061048260018055565b50565b60036020525f908152604090208054600182015460028301805492936001600160a01b03909216926104b6906116ee565b80601f01602080910402602001604051908101604052809291908181526020018280546104e2906116ee565b801561052d5780601f106105045761010080835404028352916020019161052d565b820191905f5260205f20905b81548152906001019060200180831161051057829003601f168201915b505050505090806003018054610542906116ee565b80601f016020809104026020016040519081016040528092919081815260200182805461056e906116ee565b80156105b95780601f10610590576101008083540402835291602001916105b9565b820191905f5260205f20905b81548152906001019060200180831161059c57829003601f168201915b50505050600583015460068401546008909401549293909260ff909116915087565b6105e3611224565b6040516370a0823160e01b8152336004820152670de0b6b3a7640000907f00000000000000000000000000000000000000000000000000000000000000006001600160a01b0316906370a0823190602401602060405180830381865afa15801561064f573d5f5f3e3d5ffd5b505050506040513d601f19601f820116820180604052508101906106739190611726565b10156106d85760405162461bcd60e51b815260206004820152602e60248201527f476f686f566f74696e673a2053616c646f20474f484f20696e7375666963696560448201526d373a32903830b9309031b934b0b960911b6064820152608401610293565b5f8351116107375760405162461bcd60e51b815260206004820152602660248201527f476f686f566f74696e673a2044657363726963616f20646120656e71756574656044820152652076617a696160d01b6064820152608401610293565b6002825110156107895760405162461bcd60e51b815260206004820152601b60248201527f476f686f566f74696e673a204d696e696d6f2032206f70636f657300000000006044820152606401610293565b60018110156107e65760405162461bcd60e51b815260206004820152602360248201527f476f686f566f74696e673a204475726163616f206d696e696d6120646520312060448201526264696160e81b6064820152608401610293565b62278d006107f78262015180611751565b11156108455760405162461bcd60e51b815260206004820152601f60248201527f476f686f566f74696e673a204475726163616f206d7569746f206c6f6e6761006044820152606401610293565b5f5b82518110156108cd575f83828151811061086357610863611768565b602002602001015151116108c55760405162461bcd60e51b8152602060048201526024808201527f476f686f566f74696e673a2044657363726963616f206461206f7063616f2076604482015263617a696160e01b6064820152608401610293565b600101610847565b50600280545f818152600360205260409020818155909181016108f087826117c8565b506001810180546001600160a01b031916331790556003810161091386826117c8565b506109218362015180611751565b61092b9042611883565b600582015560068101805460ff191660011790555f5b84518110156109b65781600401604051806040016040528087848151811061096b5761096b611768565b60209081029190910181015182525f9181018290528354600181018555938252902081519192600202019081906109a290826117c8565b506020919091015160019182015501610941565b5060028054905f6109c683611896565b9190505550336001600160a01b0316827f9dbafd4116dcead87280b4bad16e92c851a647fbf87a77e05cf6b29c8fcdc33c878460050154604051610a0b9291906118ae565b60405180910390a35050610a1e60018055565b50505050565b610a2c611224565b6040516370a0823160e01b8152336004820152670de0b6b3a7640000907f00000000000000000000000000000000000000000000000000000000000000006001600160a01b0316906370a0823190602401602060405180830381865afa158015610a98573d5f5f3e3d5ffd5b505050506040513d601f19601f82011682018060405250810190610abc9190611726565b1015610b215760405162461bcd60e51b815260206004820152602e60248201527f476f686f566f74696e673a2053616c646f20474f484f20696e7375666963696560448201526d373a32903830b930903b37ba30b960911b6064820152608401610293565b5f82815260036020526040902060018101546001600160a01b0316610b585760405162461bcd60e51b815260040161029390611674565b600681015460ff16610bac5760405162461bcd60e51b815260206004820152601b60248201527f476f686f566f74696e673a20456e717565746520696e617469766100000000006044820152606401610293565b80600501544210610bff5760405162461bcd60e51b815260206004820152601d60248201527f476f686f566f74696e673a20456e717565746520656e636572726164610000006044820152606401610293565b335f90815260078201602052604090205460ff1615610c575760405162461bcd60e51b8152602060048201526014602482015273476f686f566f74696e673a204a6120766f746f7560601b6044820152606401610293565b60048101548210610caa5760405162461bcd60e51b815260206004820152601a60248201527f476f686f566f74696e673a204f7063616f20696e76616c6964610000000000006044820152606401610293565b6040516370a0823160e01b81523360048201525f907f00000000000000000000000000000000000000000000000000000000000000006001600160a01b0316906370a0823190602401602060405180830381865afa158015610d0e573d5f5f3e3d5ffd5b505050506040513d601f19601f82011682018060405250810190610d329190611726565b90505f8111610d925760405162461bcd60e51b815260206004820152602660248201527f476f686f566f74696e673a2053656d20706f64657220646520766f746f20283060448201526520474f484f2960d01b6064820152608401610293565b335f9081526007830160205260409020805460ff1916600117905560048201805482919085908110610dc657610dc6611768565b905f5260205f2090600202016001015f828254610de39190611883565b9250508190555080826008015f828254610dfd9190611883565b90915550506040805184815260208101839052339186917fb4c54afd73915f9f756c8dee39fe0b311937871a92261a47747f7a3d32f63a0c910160405180910390a35050610e4a60018055565b5050565b5f838152600360205260408120600181015482916060918291829185918291829182916001600160a01b0316610e965760405162461bcd60e51b815260040161029390611674565b600481015491508a828d10610eac57505f610eca565b610eb68d846118cf565b811115610eca57610ec78d846118cf565b90505b8067ffffffffffffffff811115610ee357610ee3611333565b604051908082528060200260200182016040528015610f1657816020015b6060815260200190600190039081610f015790505b5097508067ffffffffffffffff811115610f3257610f32611333565b604051908082528060200260200182016040528015610f5b578160200160208202803683370190505b5096505f5b81811015611089575f818f610f759190611883565b9050836004018181548110610f8c57610f8c611768565b905f5260205f2090600202015f018054610fa5906116ee565b80601f0160208091040260200160405190810160405280929190818152602001828054610fd1906116ee565b801561101c5780601f10610ff35761010080835404028352916020019161101c565b820191905f5260205f20905b815481529060010190602001808311610fff57829003601f168201915b50505050508a838151811061103357611033611768565b602002602001018190525083600401818154811061105357611053611768565b905f5260205f2090600202016001015489838151811061107557611075611768565b602090810291909101015250600101610f60565b50815460018301546005840154600685015460088601546003870180546001600160a01b039095169490938e938e93919260ff90911691908b9087906110ce906116ee565b80601f01602080910402602001604051908101604052809291908181526020018280546110fa906116ee565b80156111455780601f1061111c57610100808354040283529160200191611145565b820191905f5260205f20905b81548152906001019060200180831161112857829003601f168201915b505050505096509a509a509a509a509a509a509a509a509a50505093979b92969a50939750939750565b6111776111a9565b6001600160a01b0381166111a057604051631e4fbdf760e01b81525f6004820152602401610293565b610482816111d5565b5f546001600160a01b031633146102dd5760405163118cdaa760e01b8152336004820152602401610293565b5f80546001600160a01b038381166001600160a01b0319831681178455604051919092169283917f8be0079c531659141344cd1fd0a4f28419497f9722a3daafe3b4186f6b6457e09190a35050565b60026001540361124757604051633ee5aeb560e01b815260040160405180910390fd5b6002600155565b80356001600160a01b0381168114611264575f5ffd5b919050565b5f5f6040838503121561127a575f5ffd5b8235915061128a6020840161124e565b90509250929050565b5f602082840312156112a3575f5ffd5b5035919050565b5f81518084528060208401602086015e5f602082860101526020601f19601f83011685010191505092915050565b8781526001600160a01b038716602082015260e0604082018190525f90611301908301886112aa565b828103606084015261131381886112aa565b6080840196909652505091151560a083015260c090910152949350505050565b634e487b7160e01b5f52604160045260245ffd5b604051601f8201601f1916810167ffffffffffffffff8111828210171561137057611370611333565b604052919050565b5f82601f830112611387575f5ffd5b813567ffffffffffffffff8111156113a1576113a1611333565b6113b4601f8201601f1916602001611347565b8181528460208386010111156113c8575f5ffd5b816020850160208301375f918101602001919091529392505050565b5f5f5f5f608085870312156113f7575f5ffd5b843567ffffffffffffffff81111561140d575f5ffd5b61141987828801611378565b945050602085013567ffffffffffffffff811115611435575f5ffd5b61144187828801611378565b935050604085013567ffffffffffffffff81111561145d575f5ffd5b8501601f8101871361146d575f5ffd5b803567ffffffffffffffff81111561148757611487611333565b8060051b61149760208201611347565b9182526020818401810192908101908a8411156114b2575f5ffd5b6020850192505b838310156114f857823567ffffffffffffffff8111156114d7575f5ffd5b6114e68c602083890101611378565b835250602092830192909101906114b9565b979a96995096976060013596505050505050565b5f5f6040838503121561151d575f5ffd5b50508035926020909101359150565b5f5f5f6060848603121561153e575f5ffd5b505081359360208301359350604090920135919050565b5f8151808452602084019350602083015f5b82811015611585578151865260209586019590910190600101611567565b5093949350505050565b8981526001600160a01b0389166020820152610120604082018190525f906115b99083018a6112aa565b828103606084015280895180835260208301915060208160051b84010160208c015f5b8381101561160e57601f198684030185526115f88383516112aa565b60209586019590935091909101906001016115dc565b50508581036080870152611622818c611555565b9450505050508560a083015261163c60c083018615159052565b60e08201939093526101000152979650505050505050565b5f60208284031215611664575f5ffd5b61166d8261124e565b9392505050565b6020808252601e908201527f476f686f566f74696e673a20456e7175657465206e616f206578697374650000604082015260600190565b60208082526023908201527f476f686f566f74696e673a20456e7175657465206a61206573746120696e617460408201526269766160e81b606082015260800190565b600181811c9082168061170257607f821691505b60208210810361172057634e487b7160e01b5f52602260045260245ffd5b50919050565b5f60208284031215611736575f5ffd5b5051919050565b634e487b7160e01b5f52601160045260245ffd5b80820281158282048414176102c6576102c661173d565b634e487b7160e01b5f52603260045260245ffd5b601f8211156117c357805f5260205f20601f840160051c810160208510156117a15750805b601f840160051c820191505b818110156117c0575f81556001016117ad565b50505b505050565b815167ffffffffffffffff8111156117e2576117e2611333565b6117f6816117f084546116ee565b8461177c565b6020601f821160018114611828575f83156118115750848201515b5f19600385901b1c1916600184901b1784556117c0565b5f84815260208120601f198516915b828110156118575787850151825560209485019460019092019101611837565b508482101561187457868401515f19600387901b60f8161c191681555b50505050600190811b01905550565b808201808211156102c6576102c661173d565b5f600182016118a7576118a761173d565b5060010190565b604081525f6118c060408301856112aa565b90508260208301529392505050565b818103818111156102c6576102c661173d56fea2646970667358221220340f829b014a79cffceab0b828926c841f1c10063bcc48629c163429e7b0632364736f6c634300081c0033",
    "linkReferences": {}
  },
  "methodIdentifiers": {
    "GOHO()": "e4c2d999",
    "MAX_POLL_DURATION()": "e238b764",
    "MINIMUM_GOHO_TO_CREATE_POLL()": "e81aab66",
    "MINIMUM_GOHO_TO_VOTE()": "44a6a10c",
    "closePoll(uint256)": "9534e637",
    "closePollAdmin(uint256)": "92d0f947",
    "createPoll(string,string,string[],uint256)": "ad0f04a9",
    "getPollCount()": "11a52746",
    "getPollDetails(uint256,uint256,uint256)": "b6b76ad1",
    "hasVoted(uint256,address)": "43859632",
    "nextPollId()": "2b786571",
    "owner()": "8da5cb5b",
    "polls(uint256)": "ac2f0074",
    "renounceOwnership()": "715018a6",
    "transferOwnership(address)": "f2fde38b",
    "vote(uint256,uint256)": "b384abef"
  },
  "id": 20
}