{
  "abi": [
    {
      "type": "constructor",
      "inputs": [
        {
          "name": "_gohoTokenAddress",
          "type": "address",
          "internalType": "address"
        }
      ],
      "stateMutability": "nonpayable"
    },
    {
      "type": "function",
      "name": "GOHO",
      "inputs": [],
      "outputs": [
        {
          "name": "",
          "type": "address",
          "internalType": "contract IERC20"
        }
      ],
      "stateMutability": "view"
    },
    {
      "type": "function",
      "name": "MAX_POLL_DURATION",
      "inputs": [],
      "outputs": [
        {
          "name": "",
          "type": "uint256",
          "internalType": "uint256"
        }
      ],
      "stateMutability": "view"
    },
    {
      "type": "function",
      "name": "MINIMUM_GOHO_TO_CREATE_POLL",
      "inputs": [],
      "outputs": [
        {
          "name": "",
          "type": "uint256",
          "internalType": "uint256"
        }
      ],
      "stateMutability": "view"
    },
    {
      "type": "function",
      "name": "MINIMUM_GOHO_TO_VOTE",
      "inputs": [],
      "outputs": [
        {
          "name": "",
          "type": "uint256",
          "internalType": "uint256"
        }
      ],
      "stateMutability": "view"
    },
    {
      "type": "function",
      "name": "closePoll",
      "inputs": [
        {
          "name": "_pollId",
          "type": "uint256",
          "internalType": "uint256"
        }
      ],
      "outputs": [],
      "stateMutability": "nonpayable"
    },
    {
      "type": "function",
      "name": "closePollAdmin",
      "inputs": [
        {
          "name": "_pollId",
          "type": "uint256",
          "internalType": "uint256"
        }
      ],
      "outputs": [],
      "stateMutability": "nonpayable"
    },
    {
      "type": "function",
      "name": "createPoll",
      "inputs": [
        {
          "name": "_title",
          "type": "string",
          "internalType": "string"
        },
        {
          "name": "_description",
          "type": "string",
          "internalType": "string"
        },
        {
          "name": "_optionDescriptions",
          "type": "string[]",
          "internalType": "string[]"
        },
        {
          "name": "_durationInDays",
          "type": "uint256",
          "internalType": "uint256"
        }
      ],
      "outputs": [],
      "stateMutability": "nonpayable"
    },
    {
      "type": "function",
      "name": "getPollCount",
      "inputs": [],
      "outputs": [
        {
          "name": "",
          "type": "uint256",
          "internalType": "uint256"
        }
      ],
      "stateMutability": "view"
    },
    {
      "type": "function",
      "name": "getPollDetails",
      "inputs": [
        {
          "name": "_pollId",
          "type": "uint256",
          "internalType": "uint256"
        },
        {
          "name": "_offset",
          "type": "uint256",
          "internalType": "uint256"
        },
        {
          "name": "_limit",
          "type": "uint256",
          "internalType": "uint256"
        }
      ],
      "outputs": [
        {
          "name": "id",
          "type": "uint256",
          "internalType": "uint256"
        },
        {
          "name": "title",
          "type": "string",
          "internalType": "string"
        },
        {
          "name": "creator",
          "type": "address",
          "internalType": "address"
        },
        {
          "name": "description",
          "type": "string",
          "internalType": "string"
        },
        {
          "name": "optionDescriptions",
          "type": "string[]",
          "internalType": "string[]"
        },
        {
          "name": "optionVoteCounts",
          "type": "uint256[]",
          "internalType": "uint256[]"
        },
        {
          "name": "deadline",
          "type": "uint256",
          "internalType": "uint256"
        },
        {
          "name": "active",
          "type": "bool",
          "internalType": "bool"
        },
        {
          "name": "totalVotePowerCast",
          "type": "uint256",
          "internalType": "uint256"
        },
        {
          "name": "totalOptions",
          "type": "uint256",
          "internalType": "uint256"
        }
      ],
      "stateMutability": "view"
    },
    {
      "type": "function",
      "name": "hasVoted",
      "inputs": [
        {
          "name": "_pollId",
          "type": "uint256",
          "internalType": "uint256"
        },
        {
          "name": "_voter",
          "type": "address",
          "internalType": "address"
        }
      ],
      "outputs": [
        {
          "name": "",
          "type": "bool",
          "internalType": "bool"
        }
      ],
      "stateMutability": "view"
    },
    {
      "type": "function",
      "name": "nextPollId",
      "inputs": [],
      "outputs": [
        {
          "name": "",
          "type": "uint256",
          "internalType": "uint256"
        }
      ],
      "stateMutability": "view"
    },
    {
      "type": "function",
      "name": "owner",
      "inputs": [],
      "outputs": [
        {
          "name": "",
          "type": "address",
          "internalType": "address"
        }
      ],
      "stateMutability": "view"
    },
    {
      "type": "function",
      "name": "polls",
      "inputs": [
        {
          "name": "",
          "type": "uint256",
          "internalType": "uint256"
        }
      ],
      "outputs": [
        {
          "name": "id",
          "type": "uint256",
          "internalType": "uint256"
        },
        {
          "name": "creator",
          "type": "address",
          "internalType": "address"
        },
        {
          "name": "title",
          "type": "string",
          "internalType": "string"
        },
        {
          "name": "description",
          "type": "string",
          "internalType": "string"
        },
        {
          "name": "deadline",
          "type": "uint256",
          "internalType": "uint256"
        },
        {
          "name": "active",
          "type": "bool",
          "internalType": "bool"
        },
        {
          "name": "totalVotePowerCast",
          "type": "uint256",
          "internalType": "uint256"
        }
      ],
      "stateMutability": "view"
    },
    {
      "type": "function",
      "name": "renounceOwnership",
      "inputs": [],
      "outputs": [],
      "stateMutability": "nonpayable"
    },
    {
      "type": "function",
      "name": "transferOwnership",
      "inputs": [
        {
          "name": "newOwner",
          "type": "address",
          "internalType": "address"
        }
      ],
      "outputs": [],
      "stateMutability": "nonpayable"
    },
    {
      "type": "function",
      "name": "vote",
      "inputs": [
        {
          "name": "_pollId",
          "type": "uint256",
          "internalType": "uint256"
        },
        {
          "name": "_optionId",
          "type": "uint256",
          "internalType": "uint256"
        }
      ],
      "outputs": [],
      "stateMutability": "nonpayable"
    },
    {
      "type": "event",
      "name": "OwnershipTransferred",
      "inputs": [
        {
          "name": "previousOwner",
          "type": "address",
          "indexed": true,
          "internalType": "address"
        },
        {
          "name": "newOwner",
          "type": "address",
          "indexed": true,
          "internalType": "address"
        }
      ],
      "anonymous": false
    },
    {
      "type": "event",
      "name": "PollClosed",
      "inputs": [
        {
          "name": "pollId",
          "type": "uint256",
          "indexed": true,
          "internalType": "uint256"
        }
      ],
      "anonymous": false
    },
    {
      "type": "event",
      "name": "PollCreated",
      "inputs": [
        {
          "name": "title",
          "type": "string",
          "indexed": false,
          "internalType": "string"
        },
        {
          "name": "pollId",
          "type": "uint256",
          "indexed": true,
          "internalType": "uint256"
        },
        {
          "name": "creator",
          "type": "address",
          "indexed": true,
          "internalType": "address"
        },
        {
          "name": "description",
          "type": "string",
          "indexed": false,
          "internalType": "string"
        },
        {
          "name": "deadline",
          "type": "uint256",
          "indexed": false,
          "internalType": "uint256"
        }
      ],
      "anonymous": false
    },
    {
      "type": "event",
      "name": "Voted",
      "inputs": [
        {
          "name": "pollId",
          "type": "uint256",
          "indexed": true,
          "internalType": "uint256"
        },
        {
          "name": "voter",
          "type": "address",
          "indexed": true,
          "internalType": "address"
        },
        {
          "name": "optionId",
          "type": "uint256",
          "indexed": false,
          "internalType": "uint256"
        },
        {
          "name": "votePower",
          "type": "uint256",
          "indexed": false,
          "internalType": "uint256"
        }
      ],
      "anonymous": false
    },
    {
      "type": "error",
      "name": "OwnableInvalidOwner",
      "inputs": [
        {
          "name": "owner",
          "type": "address",
          "internalType": "address"
        }
      ]
    },
    {
      "type": "error",
      "name": "OwnableUnauthorizedAccount",
      "inputs": [
        {
          "name": "account",
          "type": "address",
          "internalType": "address"
        }
      ]
    },
    {
      "type": "error",
      "name": "ReentrancyGuardReentrantCall",
      "inputs": []
    }
  ],
  "bytecode": {
    "object": "0x60a03461013657601f6117ff38819003918201601f19168301916001600160401b0383118484101761013a5780849260209460405283398101031261013657516001600160a01b03811690819003610136573315610123575f8054336001600160a01b03198216811783556040519290916001600160a01b0316907f8be0079c531659141344cd1fd0a4f28419497f9722a3daafe3b4186f6b6457e09080a36001805581156100d257506080526040516116b0908161014f82396080518181816101730152818161045801526108d40152f35b62461bcd60e51b815260206004820152602660248201527f476f686f566f74696e673a20456e64657265636f20646f20746f6b656e20696e60448201526576616c69646f60d01b6064820152608490fd5b631e4fbdf760e01b5f525f60045260245ffd5b5f80fd5b634e487b7160e01b5f52604160045260245ffdfe6080806040526004361015610012575f80fd5b5f3560e01c90816311a527461461136d575080632b7865711461135057806343859632146112d457806344a6a10c14610159578063715018a61461127d5780638da5cb5b1461125657806392d0f947146111da5780639534e637146110f6578063ac2f00741461104f578063ad0f04a9146107f9578063b384abef14610424578063b6b76ad1146101bf578063e238b764146101a2578063e4c2d9991461015e578063e81aab66146101595763f2fde38b146100cc575f80fd5b34610155576020366003190112610155576004356001600160a01b03811690819003610155576100fa611634565b8015610142575f80546001600160a01b03198116831782556001600160a01b0316907f8be0079c531659141344cd1fd0a4f28419497f9722a3daafe3b4186f6b6457e09080a3005b631e4fbdf760e01b5f525f60045260245ffd5b5f80fd5b611387565b34610155575f366003190112610155576040517f00000000000000000000000000000000000000000000000000000000000000006001600160a01b03168152602090f35b34610155575f36600319011261015557602060405162278d008152f35b34610155576060366003190112610155576004355f90815260036020526040902060018101546001600160a01b031690602435604435610200841515611535565b60048301805490939091808385106103ff5750505f945b6102208661151d565b9561022e60405197886113e1565b808752601f1961023d8261151d565b015f5b8181106103ee5750506102528161151d565b9561026060405197886113e1565b81875261026c8261151d565b602088019690601f19013688375f5b83811061039957505050508154946005830154906102e960ff600686015416936008860154956102d66102bc60036102b560028501611403565b9301611403565b916040519b8c5261014060208d01526101408c01906114a3565b9160408b015289820360608b01526114a3565b8781036080890152885180825260208201916020808360051b8301019b01925f915b83831061036b575050505087890360a089015250518088525f9760200195905b80891061035357505085965060c0860152151560e08501526101008401526101208301520390f35b9095602080600192895181520197019801979061032b565b909192939b60208061038a8f93600194601f19878303018852516114a3565b9e01930193019193929061030b565b8060016103da8c6103d3846103af859789611601565b926103c36103bd858c61160e565b50611403565b6103cd83836115d9565b526115d9565b508661160e565b5001546103e7828c6115d9565b520161027b565b806060602080938c01015201610240565b61040c8585989398611627565b101561021757945061041e8383611627565b94610217565b346101555760403660031901126101555760243560043561044361165a565b6040516370a0823160e01b81523360048201527f00000000000000000000000000000000000000000000000000000000000000006001600160a01b031690602081602481855afa801561064d575f906107bf575b670de0b6b3a7640000915010610763575f82815260036020526040902060018101546104cd906001600160a01b03161515611535565b60ff6006820154161561071e5760058101544210156106d957600781019060018060a01b0333165f528160205260ff60405f20541661069d5760048101918254861015610658576020602494604051958680926370a0823160e01b82523360048301525afa93841561064d575f94610619575b5083156105c55761057186600894600193848060a01b0333165f5260205260405f208460ff1982541617905561160e565b500161057e848254611601565b90550161058c828254611601565b905560405192835260208301527fb4c54afd73915f9f756c8dee39fe0b311937871a92261a47747f7a3d32f63a0c60403393a360018055005b60405162461bcd60e51b815260206004820152602660248201527f476f686f566f74696e673a2053656d20706f64657220646520766f746f20283060448201526520474f484f2960d01b6064820152608490fd5b9093506020813d602011610645575b81610635602093836113e1565b8101031261015557519286610540565b3d9150610628565b6040513d5f823e3d90fd5b60405162461bcd60e51b815260206004820152601a60248201527f476f686f566f74696e673a204f7063616f20696e76616c6964610000000000006044820152606490fd5b60405162461bcd60e51b8152602060048201526014602482015273476f686f566f74696e673a204a6120766f746f7560601b6044820152606490fd5b60405162461bcd60e51b815260206004820152601d60248201527f476f686f566f74696e673a20456e717565746520656e636572726164610000006044820152606490fd5b60405162461bcd60e51b815260206004820152601b60248201527f476f686f566f74696e673a20456e717565746520696e617469766100000000006044820152606490fd5b60405162461bcd60e51b815260206004820152602e60248201527f476f686f566f74696e673a2053616c646f20474f484f20696e7375666963696560448201526d373a32903830b930903b37ba30b960911b6064820152608490fd5b506020813d6020116107f1575b816107d9602093836113e1565b8101031261015557670de0b6b3a76400009051610497565b3d91506107cc565b346101555760803660031901126101555760043567ffffffffffffffff81116101555761082a9036906004016114c7565b60243567ffffffffffffffff81116101555761084a9036906004016114c7565b906044359067ffffffffffffffff821161015557366023830112156101555781600401356108778161151d565b9261088560405194856113e1565b8184526024602085019260051b820101903682116101555760248101925b82841061101f57505050506064356108b961165a565b6040516370a0823160e01b81523360048201526020816024817f00000000000000000000000000000000000000000000000000000000000000006001600160a01b03165afa801561064d575f90610fe5575b670de0b6b3a7640000915010610f8957835115610f35576002835110610ef05760018110610e9f5762015180810290808204620151801490151715610cdb5762278d008111610e5a575f5b83518110156109c95761096981856115d9565b51511561097857600101610956565b60405162461bcd60e51b8152602060048201526024808201527f476f686f566f74696e673a2044657363726963616f206461206f7063616f2076604482015263617a696160e01b6064820152608490fd5b508284600254805f52600360205260405f209381855560028501865167ffffffffffffffff8111610c44576109fe82546113a9565b601f8111610e15575b50806020601f8211600114610db2575f91610da7575b508160011b915f199060031b1c19161790555b6001850180546001600160a01b031916331790558251600386019067ffffffffffffffff8111610c4457610a6482546113a9565b601f8111610d62575b506020601f8211600114610cfa579080610aa69493925f91610cef575b508160011b915f199060031b1c19161790559594955b42611601565b6005860190815560068601600160ff1982541617905560045f9601955b8451811015610c6b57610ad681866115d9565b51604051906040820182811067ffffffffffffffff821117610c44576040528152602081015f8152885468010000000000000000811015610c4457806001610b2192018b558a61160e565b929092610c58575180519067ffffffffffffffff8211610c4457610b4584546113a9565b601f8111610bff575b50602090601f8311600114610b9657918060019695949287945f92610b8b575b50505f19600383901b1c191690831b1783555b5191015501610ac3565b015190508d80610b6e565b90601f19831691855f52815f20925f5b818110610be75750926001979695939285928996879510610bcf575b505050811b018355610b81565b01515f1960f88460031b161c191690558d8080610bc2565b92936020600181928786015181550195019301610ba6565b845f5260205f20601f840160051c81019160208510610c3a575b601f0160051c01905b818110610c2f5750610b4e565b5f8155600101610c22565b9091508190610c19565b634e487b7160e01b5f52604160045260245ffd5b634e487b7160e01b5f525f60045260245ffd5b50846002545f198114610cdb577f942c35a03006d9ce1823efb994941abc29294bbcaefac559271aedb49c345b20926001610cc992016002555494610cbb604051936060855260608501906114a3565b9083820360208501526114a3565b9360408201528033940390a360018055005b634e487b7160e01b5f52601160045260245ffd5b90508601518a610a8a565b601f19821690835f52805f20915f5b818110610d4a5750918391610aa696959460019410610d32575b5050811b019055959495610aa0565b8801515f1960f88460031b161c191690558a80610d23565b9192602060018192868c015181550194019201610d09565b825f5260205f20601f830160051c81019160208410610d9d575b601f0160051c01905b818110610d925750610a6d565b5f8155600101610d85565b9091508190610d7c565b905088015189610a1d565b5f8481528181209250601f198416905b8b828210610dfd5750509083600194939210610de5575b5050811b019055610a30565b8a01515f1960f88460031b161c191690558980610dd9565b60018495602093958493015181550194019201610dc2565b825f5260205f20601f830160051c81019160208410610e50575b601f0160051c01905b818110610e455750610a07565b5f8155600101610e38565b9091508190610e2f565b60405162461bcd60e51b815260206004820152601f60248201527f476f686f566f74696e673a204475726163616f206d7569746f206c6f6e6761006044820152606490fd5b60405162461bcd60e51b815260206004820152602360248201527f476f686f566f74696e673a204475726163616f206d696e696d6120646520312060448201526264696160e81b6064820152608490fd5b60405162461bcd60e51b815260206004820152601b60248201527f476f686f566f74696e673a204d696e696d6f2032206f70636f657300000000006044820152606490fd5b60405162461bcd60e51b815260206004820152602660248201527f476f686f566f74696e673a2044657363726963616f20646120656e71756574656044820152652076617a696160d01b6064820152608490fd5b60405162461bcd60e51b815260206004820152602e60248201527f476f686f566f74696e673a2053616c646f20474f484f20696e7375666963696560448201526d373a32903830b9309031b934b0b960911b6064820152608490fd5b506020813d602011611017575b81610fff602093836113e1565b8101031261015557670de0b6b3a7640000905161090b565b3d9150610ff2565b833567ffffffffffffffff8111610155576020916110448392602436918701016114c7565b8152019301926108a3565b34610155576020366003190112610155576004355f908152600360205260409020805460018201546001600160a01b03169161108d60028201611403565b61109960038301611403565b916110e06005820154936110d2600860ff600686015416940154946040519889988952602089015260e0604089015260e08801906114a3565b9086820360608801526114a3565b926080850152151560a084015260c08301520390f35b346101555760203660031901126101555760043561111261165a565b5f8181526003602052604090206001810154611138906001600160a01b03161515611535565b6006810190600582549161114e60ff8416611581565b015442106111865760ff191690557f703c67c157a1afb7d386ce5212ee88bf0a690bca998060e9595ebdfd747100ce5f80a260018055005b60405162461bcd60e51b815260206004820152602660248201527f476f686f566f74696e673a20456e71756574652061696e6461206e616f20656e604482015265636572726f7560d01b6064820152608490fd5b34610155576020366003190112610155576004356111f6611634565b805f526003602052600660405f2061121b60018060a01b036001830154161515611535565b01805461122a60ff8216611581565b60ff191690557f703c67c157a1afb7d386ce5212ee88bf0a690bca998060e9595ebdfd747100ce5f80a2005b34610155575f366003190112610155575f546040516001600160a01b039091168152602090f35b34610155575f36600319011261015557611295611634565b5f80546001600160a01b0319811682556001600160a01b03167f8be0079c531659141344cd1fd0a4f28419497f9722a3daafe3b4186f6b6457e08280a3005b34610155576040366003190112610155576024356004356001600160a01b0382168203610155575f81815260036020526040902060010154611320906001600160a01b03161515611535565b5f526003602052600760405f20019060018060a01b03165f52602052602060ff60405f2054166040519015158152f35b34610155575f366003190112610155576020600254604051908152f35b34610155575f366003190112610155576020906002548152f35b34610155575f366003190112610155576020604051670de0b6b3a76400008152f35b90600182811c921680156113d7575b60208310146113c357565b634e487b7160e01b5f52602260045260245ffd5b91607f16916113b8565b90601f8019910116810190811067ffffffffffffffff821117610c4457604052565b9060405191825f825492611416846113a9565b8084529360018116908115611481575060011461143d575b5061143b925003836113e1565b565b90505f9291925260205f20905f915b81831061146557505090602061143b928201015f61142e565b602091935080600191548385890101520191019091849261144c565b90506020925061143b94915060ff191682840152151560051b8201015f61142e565b805180835260209291819084018484015e5f828201840152601f01601f1916010190565b81601f820112156101555780359067ffffffffffffffff8211610c4457604051926114fc601f8401601f1916602001856113e1565b8284526020838301011161015557815f926020809301838601378301015290565b67ffffffffffffffff8111610c445760051b60200190565b1561153c57565b60405162461bcd60e51b815260206004820152601e60248201527f476f686f566f74696e673a20456e7175657465206e616f2065786973746500006044820152606490fd5b1561158857565b60405162461bcd60e51b815260206004820152602360248201527f476f686f566f74696e673a20456e7175657465206a61206573746120696e617460448201526269766160e81b6064820152608490fd5b80518210156115ed5760209160051b010190565b634e487b7160e01b5f52603260045260245ffd5b91908201809211610cdb57565b80548210156115ed575f5260205f209060011b01905f90565b91908203918211610cdb57565b5f546001600160a01b0316330361164757565b63118cdaa760e01b5f523360045260245ffd5b60026001541461166b576002600155565b633ee5aeb560e01b5f5260045ffdfea26469706673582212202a4f169216fd9a1db1df00504edbc367437a7dd83840014b6323f94974af871364736f6c634300081c0033",
    "linkReferences": {}
  },
  "methodIdentifiers": {
    "GOHO()": "e4c2d999",
    "MAX_POLL_DURATION()": "e238b764",
    "MINIMUM_GOHO_TO_CREATE_POLL()": "e81aab66",
    "MINIMUM_GOHO_TO_VOTE()": "44a6a10c",
    "closePoll(uint256)": "9534e637",
    "closePollAdmin(uint256)": "92d0f947",
    "createPoll(string,string,string[],uint256)": "ad0f04a9",
    "getPollCount()": "11a52746",
    "getPollDetails(uint256,uint256,uint256)": "b6b76ad1",
    "hasVoted(uint256,address)": "43859632",
    "nextPollId()": "2b786571",
    "owner()": "8da5cb5b",
    "polls(uint256)": "ac2f0074",
    "renounceOwnership()": "715018a6",
    "transferOwnership(address)": "f2fde38b",
    "vote(uint256,uint256)": "b384abef"
  },
  "id": 20
}