{
  "contractName": "GoHorse",
  "abi": [
    {
      "inputs": [
        {
          "internalType": "uint256",
          "name": "_mintFee",
          "type": "uint256"
        },
        {
          "internalType": "address",
          "name": "_feeRecipient",
          "type": "address"
        }
      ],
      "stateMutability": "nonpayable",
      "type": "constructor"
    },
    {
      "inputs": [
        {
          "internalType": "address",
          "name": "spender",
          "type": "address"
        },
        {
          "internalType": "uint256",
          "name": "allowance",
          "type": "uint256"
        },
        {
          "internalType": "uint256",
          "name": "needed",
          "type": "uint256"
        }
      ],
      "name": "ERC20InsufficientAllowance",
      "type": "error"
    },
    {
      "inputs": [
        {
          "internalType": "address",
          "name": "sender",
          "type": "address"
        },
        {
          "internalType": "uint256",
          "name": "balance",
          "type": "uint256"
        },
        {
          "internalType": "uint256",
          "name": "needed",
          "type": "uint256"
        }
      ],
      "name": "ERC20InsufficientBalance",
      "type": "error"
    },
    {
      "inputs": [
        {
          "internalType": "address",
          "name": "approver",
          "type": "address"
        }
      ],
      "name": "ERC20InvalidApprover",
      "type": "error"
    },
    {
      "inputs": [
        {
          "internalType": "address",
          "name": "receiver",
          "type": "address"
        }
      ],
      "name": "ERC20InvalidReceiver",
      "type": "error"
    },
    {
      "inputs": [
        {
          "internalType": "address",
          "name": "sender",
          "type": "address"
        }
      ],
      "name": "ERC20InvalidSender",
      "type": "error"
    },
    {
      "inputs": [
        {
          "internalType": "address",
          "name": "spender",
          "type": "address"
        }
      ],
      "name": "ERC20InvalidSpender",
      "type": "error"
    },
    {
      "inputs": [],
      "name": "ExactFeeRequired",
      "type": "error"
    },
    {
      "inputs": [],
      "name": "ExceedsMaxSupply",
      "type": "error"
    },
    {
      "inputs": [],
      "name": "InsufficientBalance",
      "type": "error"
    },
    {
      "inputs": [
        {
          "internalType": "address",
          "name": "owner",
          "type": "address"
        }
      ],
      "name": "OwnableInvalidOwner",
      "type": "error"
    },
    {
      "inputs": [
        {
          "internalType": "address",
          "name": "account",
          "type": "address"
        }
      ],
      "name": "OwnableUnauthorizedAccount",
      "type": "error"
    },
    {
      "inputs": [],
      "name": "ReentrancyGuardReentrantCall",
      "type": "error"
    },
    {
      "inputs": [],
      "name": "TransferFailed",
      "type": "error"
    },
    {
      "anonymous": false,
      "inputs": [
        {
          "indexed": true,
          "internalType": "address",
          "name": "owner",
          "type": "address"
        },
        {
          "indexed": true,
          "internalType": "address",
          "name": "spender",
          "type": "address"
        },
        {
          "indexed": false,
          "internalType": "uint256",
          "name": "value",
          "type": "uint256"
        }
      ],
      "name": "Approval",
      "type": "event"
    },
    {
      "anonymous": false,
      "inputs": [
        {
          "indexed": false,
          "internalType": "address",
          "name": "newRecipient",
          "type": "address"
        }
      ],
      "name": "FeeRecipientUpdated",
      "type": "event"
    },
    {
      "anonymous": false,
      "inputs": [
        {
          "indexed": true,
          "internalType": "address",
          "name": "recipient",
          "type": "address"
        },
        {
          "indexed": false,
          "internalType": "uint256",
          "name": "amount",
          "type": "uint256"
        }
      ],
      "name": "FeeTransferred",
      "type": "event"
    },
    {
      "anonymous": false,
      "inputs": [
        {
          "indexed": false,
          "internalType": "uint256",
          "name": "newFee",
          "type": "uint256"
        }
      ],
      "name": "MintFeeUpdated",
      "type": "event"
    },
    {
      "anonymous": false,
      "inputs": [
        {
          "indexed": true,
          "internalType": "address",
          "name": "previousOwner",
          "type": "address"
        },
        {
          "indexed": true,
          "internalType": "address",
          "name": "newOwner",
          "type": "address"
        }
      ],
      "name": "OwnershipTransferred",
      "type": "event"
    },
    {
      "anonymous": false,
      "inputs": [
        {
          "indexed": true,
          "internalType": "address",
          "name": "to",
          "type": "address"
        },
        {
          "indexed": false,
          "internalType": "uint256",
          "name": "amount",
          "type": "uint256"
        }
      ],
      "name": "TokensMinted",
      "type": "event"
    },
    {
      "anonymous": false,
      "inputs": [
        {
          "indexed": true,
          "internalType": "address",
          "name": "from",
          "type": "address"
        },
        {
          "indexed": true,
          "internalType": "address",
          "name": "to",
          "type": "address"
        },
        {
          "indexed": false,
          "internalType": "uint256",
          "name": "value",
          "type": "uint256"
        }
      ],
      "name": "Transfer",
      "type": "event"
    },
    {
      "inputs": [],
      "name": "MAX_SUPPLY",
      "outputs": [
        {
          "internalType": "uint256",
          "name": "",
          "type": "uint256"
        }
      ],
      "stateMutability": "view",
      "type": "function"
    },
    {
      "inputs": [
        {
          "internalType": "address",
          "name": "owner",
          "type": "address"
        },
        {
          "internalType": "address",
          "name": "spender",
          "type": "address"
        }
      ],
      "name": "allowance",
      "outputs": [
        {
          "internalType": "uint256",
          "name": "",
          "type": "uint256"
        }
      ],
      "stateMutability": "view",
      "type": "function"
    },
    {
      "inputs": [
        {
          "internalType": "address",
          "name": "spender",
          "type": "address"
        },
        {
          "internalType": "uint256",
          "name": "value",
          "type": "uint256"
        }
      ],
      "name": "approve",
      "outputs": [
        {
          "internalType": "bool",
          "name": "",
          "type": "bool"
        }
      ],
      "stateMutability": "nonpayable",
      "type": "function"
    },
    {
      "inputs": [
        {
          "internalType": "address",
          "name": "account",
          "type": "address"
        }
      ],
      "name": "balanceOf",
      "outputs": [
        {
          "internalType": "uint256",
          "name": "",
          "type": "uint256"
        }
      ],
      "stateMutability": "view",
      "type": "function"
    },
    {
      "inputs": [],
      "name": "decimals",
      "outputs": [
        {
          "internalType": "uint8",
          "name": "",
          "type": "uint8"
        }
      ],
      "stateMutability": "view",
      "type": "function"
    },
    {
      "inputs": [],
      "name": "feeRecipient",
      "outputs": [
        {
          "internalType": "address",
          "name": "",
          "type": "address"
        }
      ],
      "stateMutability": "view",
      "type": "function"
    },
    {
      "inputs": [],
      "name": "getMaxSupply",
      "outputs": [
        {
          "internalType": "uint256",
          "name": "",
          "type": "uint256"
        }
      ],
      "stateMutability": "pure",
      "type": "function"
    },
    {
      "inputs": [],
      "name": "getMetadataUrl",
      "outputs": [
        {
          "internalType": "string",
          "name": "",
          "type": "string"
        }
      ],
      "stateMutability": "pure",
      "type": "function"
    },
    {
      "inputs": [],
      "name": "getTotalMinted",
      "outputs": [
        {
          "internalType": "uint256",
          "name": "",
          "type": "uint256"
        }
      ],
      "stateMutability": "view",
      "type": "function"
    },
    {
      "inputs": [
        {
          "internalType": "address",
          "name": "to",
          "type": "address"
        },
        {
          "internalType": "uint256",
          "name": "amount",
          "type": "uint256"
        }
      ],
      "name": "mint",
      "outputs": [],
      "stateMutability": "payable",
      "type": "function"
    },
    {
      "inputs": [],
      "name": "mintFee",
      "outputs": [
        {
          "internalType": "uint256",
          "name": "",
          "type": "uint256"
        }
      ],
      "stateMutability": "view",
      "type": "function"
    },
    {
      "inputs": [],
      "name": "name",
      "outputs": [
        {
          "internalType": "string",
          "name": "",
          "type": "string"
        }
      ],
      "stateMutability": "view",
      "type": "function"
    },
    {
      "inputs": [],
      "name": "owner",
      "outputs": [
        {
          "internalType": "address",
          "name": "",
          "type": "address"
        }
      ],
      "stateMutability": "view",
      "type": "function"
    },
    {
      "inputs": [],
      "name": "renounceOwnership",
      "outputs": [],
      "stateMutability": "nonpayable",
      "type": "function"
    },
    {
      "inputs": [
        {
          "internalType": "address",
          "name": "_feeRecipient",
          "type": "address"
        }
      ],
      "name": "setFeeRecipient",
      "outputs": [],
      "stateMutability": "nonpayable",
      "type": "function"
    },
    {
      "inputs": [
        {
          "internalType": "uint256",
          "name": "_mintFee",
          "type": "uint256"
        }
      ],
      "name": "setMintFee",
      "outputs": [],
      "stateMutability": "nonpayable",
      "type": "function"
    },
    {
      "inputs": [],
      "name": "symbol",
      "outputs": [
        {
          "internalType": "string",
          "name": "",
          "type": "string"
        }
      ],
      "stateMutability": "view",
      "type": "function"
    },
    {
      "inputs": [],
      "name": "totalSupply",
      "outputs": [
        {
          "internalType": "uint256",
          "name": "",
          "type": "uint256"
        }
      ],
      "stateMutability": "view",
      "type": "function"
    },
    {
      "inputs": [
        {
          "internalType": "address",
          "name": "to",
          "type": "address"
        },
        {
          "internalType": "uint256",
          "name": "value",
          "type": "uint256"
        }
      ],
      "name": "transfer",
      "outputs": [
        {
          "internalType": "bool",
          "name": "",
          "type": "bool"
        }
      ],
      "stateMutability": "nonpayable",
      "type": "function"
    },
    {
      "inputs": [
        {
          "internalType": "address",
          "name": "from",
          "type": "address"
        },
        {
          "internalType": "address",
          "name": "to",
          "type": "address"
        },
        {
          "internalType": "uint256",
          "name": "value",
          "type": "uint256"
        }
      ],
      "name": "transferFrom",
      "outputs": [
        {
          "internalType": "bool",
          "name": "",
          "type": "bool"
        }
      ],
      "stateMutability": "nonpayable",
      "type": "function"
    },
    {
      "inputs": [
        {
          "internalType": "address",
          "name": "newOwner",
          "type": "address"
        }
      ],
      "name": "transferOwnership",
      "outputs": [],
      "stateMutability": "nonpayable",
      "type": "function"
    }
  ],
  "bytecode": "6080604052346103f95761109e6040813803918261001c816103fd565b9384928339810103126103f95780516020909101516001600160a01b03811691908290036103f95761004e60406103fd565b916008835267476f20486f72736560c01b602084015261006e60406103fd565b6004815263474f484f60e01b602082015283519092906001600160401b03811161030a57600354600181811c911680156103ef575b60208210146102ec57601f811161038c575b50602094601f8211600114610329579481929394955f9261031e575b50508160011b915f199060031b1c1916176003555b82516001600160401b03811161030a57600454600181811c91168015610300575b60208210146102ec57601f8111610289575b506020601f821160011461022657819293945f9261021b575b50508160011b915f199060031b1c1916176004555b33156102085760058054336001600160a01b03198216811790925560405191906001600160a01b03167f8be0079c531659141344cd1fd0a4f28419497f9722a3daafe3b4186f6b6457e05f80a3600160065582156101c65750600855600980546001600160a01b031916919091179055604051610c7b90816104238239f35b62461bcd60e51b815260206004820152601560248201527f496e76616c69642066656520726563697069656e7400000000000000000000006044820152606490fd5b631e4fbdf760e01b5f525f60045260245ffd5b015190505f80610132565b601f1982169060045f52805f20915f5b81811061027157509583600195969710610259575b505050811b01600455610147565b01515f1960f88460031b161c191690555f808061024b565b9192602060018192868b015181550194019201610236565b60045f527f8a35acfbc15ff81a39ae7d344fd709f28e8600b4aa8c65c6b64bfe7fe36bd19b601f830160051c810191602084106102e2575b601f0160051c01905b8181106102d75750610119565b5f81556001016102ca565b90915081906102c1565b634e487b7160e01b5f52602260045260245ffd5b90607f1690610107565b634e487b7160e01b5f52604160045260245ffd5b015190505f806100d1565b601f1982169560035f52805f20915f5b8881106103745750836001959697981061035c575b505050811b016003556100e6565b01515f1960f88460031b161c191690555f808061034e565b91926020600181928685015181550194019201610339565b60035f527fc2575a0e9e593c00f959f8c92f12db2869c3395a3b0502d05e2516446f71f85b601f830160051c810191602084106103e5575b601f0160051c01905b8181106103da57506100b5565b5f81556001016103cd565b90915081906103c4565b90607f16906100a3565b5f80fd5b6040519190601f01601f191682016001600160401b0381118382101761030a5760405256fe6080806040526004361015610012575f80fd5b5f3560e01c90816306fdde0314610a2457508063095ea7b3146109a25780630ca1c5c91461098557806313966db51461096857806318160ddd1461094b57806323b872dd1461086c578063313ce5671461085157806332cb6b0c1461058157806340c10f19146105cd57806346904840146105a55780634c0f38c21461058157806370a082311461054a578063715018a6146104ef5780638da5cb5b146104c757806395d89b41146103c7578063a9059cbb14610396578063b03e7592146102d6578063dd62ed3e14610286578063e74b981b146101d9578063eddd0d9c1461018d5763f2fde38b14610103575f80fd5b346101895760203660031901126101895761011c610b06565b610124610c1e565b6001600160a01b0316801561017657600580546001600160a01b0319811683179091556001600160a01b03167f8be0079c531659141344cd1fd0a4f28419497f9722a3daafe3b4186f6b6457e05f80a3005b631e4fbdf760e01b5f525f60045260245ffd5b5f80fd5b34610189576020366003190112610189577f38fbb1c8b109c430f0c030e7ed076cf5611a307773a4e8e365601e8f8bceaec660206004356101cc610c1e565b80600855604051908152a1005b34610189576020366003190112610189576101f2610b06565b6101fa610c1e565b6001600160a01b0316801561024f576020817f7a7b5a0a132f9e0581eb8527f66eae9ee89c2a3e79d4ac7e41a1f1f4d48a7fc2926bffffffffffffffffffffffff60a01b6009541617600955604051908152a1005b60405162461bcd60e51b815260206004820152600f60248201526e496e76616c6964206164647265737360881b6044820152606490fd5b346101895760403660031901126101895761029f610b06565b6102a7610b1c565b6001600160a01b039182165f908152600160209081526040808320949093168252928352819020549051908152f35b34610189575f366003190112610189576103926040516102f760a082610b32565b607081527f68747470733a2f2f7261772e67697468756275736572636f6e74656e742e636f60208201527f6d2f6465762d617261756a6f2f676f2d686f7273652d6661756365742f6d616960408201527f6e2f736d6172742d636f6e7472616374732f6d657461646174612f676f686f7260608201526f39b296b6b2ba30b230ba30973539b7b760811b608082015260405191829182610adc565b0390f35b34610189576040366003190112610189576103bc6103b2610b06565b6024359033610b61565b602060405160018152f35b34610189575f366003190112610189576040515f6004548060011c906001811680156104bd575b6020831081146104a9578285529081156104855750600114610427575b6103928361041b81850382610b32565b60405191829182610adc565b91905060045f527f8a35acfbc15ff81a39ae7d344fd709f28e8600b4aa8c65c6b64bfe7fe36bd19b915f905b80821061046b5750909150810160200161041b61040b565b919260018160209254838588010152019101909291610453565b60ff191660208086019190915291151560051b8401909101915061041b905061040b565b634e487b7160e01b5f52602260045260245ffd5b91607f16916103ee565b34610189575f366003190112610189576005546040516001600160a01b039091168152602090f35b34610189575f36600319011261018957610507610c1e565b600580546001600160a01b031981169091555f906001600160a01b03167f8be0079c531659141344cd1fd0a4f28419497f9722a3daafe3b4186f6b6457e08280a3005b34610189576020366003190112610189576001600160a01b0361056b610b06565b165f525f602052602060405f2054604051908152f35b34610189575f36600319011261018957602060405169021e19e0c9bab24000008152f35b34610189575f366003190112610189576009546040516001600160a01b039091168152602090f35b6040366003190112610189576105e1610b06565b602435906002600654146108425760026006556001600160a01b03169081156108095769021e19e0c9bab240000061061b82600754610b54565b116107fa57670de0b6b3a764000081046008548181029181830414901517156107e6578034106107d75734036107c85761065781600254610b54565b600255816107b25780600254036002555b815f7fddf252ad1be2c89b69c2b068fc378daa952ba7f163c4a11628f55a4df523b3ef6020604051858152a36106a081600754610b54565b600755346106db575b60207f3f2c9d57c068687834f0de942a9babb9e5acab57d516d3480a3c16ee165a427391604051908152a26001600655005b5f8080803460018060a01b03600954165af13d156107ad573d67ffffffffffffffff8111610799576040519061071b601f8201601f191660200183610b32565b81525f60203d92013e5b1561078a5760207f3f2c9d57c068687834f0de942a9babb9e5acab57d516d3480a3c16ee165a42739160018060a01b03600954167f34e8a84e537ed93d93ddf39a78816dcbc74df8397c635838b8cc973d4fa943f883604051348152a29150506106a9565b6312171d8360e31b5f5260045ffd5b634e487b7160e01b5f52604160045260245ffd5b610725565b815f525f60205260405f20818154019055610668565b63629e9f8b60e01b5f5260045ffd5b631e9acf1760e31b5f5260045ffd5b634e487b7160e01b5f52601160045260245ffd5b63c30436e960e01b5f5260045ffd5b60405162461bcd60e51b8152602060048201526011602482015270125b9d985b1a59081c9958da5c1a595b9d607a1b6044820152606490fd5b633ee5aeb560e01b5f5260045ffd5b34610189575f36600319011261018957602060405160128152f35b3461018957606036600319011261018957610885610b06565b61088d610b1c565b6001600160a01b0382165f818152600160209081526040808320338452909152902054909260443592915f1981106108cb575b506103bc9350610b61565b83811061093057841561091d57331561090a576103bc945f52600160205260405f2060018060a01b0333165f526020528360405f2091039055846108c0565b634a1406b160e11b5f525f60045260245ffd5b63e602df0560e01b5f525f60045260245ffd5b8390637dc7a0d960e11b5f523360045260245260445260645ffd5b34610189575f366003190112610189576020600254604051908152f35b34610189575f366003190112610189576020600854604051908152f35b34610189575f366003190112610189576020600754604051908152f35b34610189576040366003190112610189576109bb610b06565b60243590331561091d576001600160a01b031690811561090a57335f52600160205260405f20825f526020528060405f20556040519081527f8c5be1e5ebec7d5bd14f71427d1e84f3dd0314c0f7b2291e5b200ac8c7c3b92560203392a3602060405160018152f35b34610189575f366003190112610189575f6003548060011c90600181168015610ad2575b6020831081146104a9578285529081156104855750600114610a74576103928361041b81850382610b32565b91905060035f527fc2575a0e9e593c00f959f8c92f12db2869c3395a3b0502d05e2516446f71f85b915f905b808210610ab85750909150810160200161041b61040b565b919260018160209254838588010152019101909291610aa0565b91607f1691610a48565b602060409281835280519182918282860152018484015e5f828201840152601f01601f1916010190565b600435906001600160a01b038216820361018957565b602435906001600160a01b038216820361018957565b90601f8019910116810190811067ffffffffffffffff82111761079957604052565b919082018092116107e657565b6001600160a01b0316908115610c0b576001600160a01b0316918215610bf857815f525f60205260405f2054818110610bdf57817fddf252ad1be2c89b69c2b068fc378daa952ba7f163c4a11628f55a4df523b3ef92602092855f525f84520360405f2055845f525f825260405f20818154019055604051908152a3565b8263391434e360e21b5f5260045260245260445260645ffd5b63ec442f0560e01b5f525f60045260245ffd5b634b637e8f60e11b5f525f60045260245ffd5b6005546001600160a01b03163303610c3257565b63118cdaa760e01b5f523360045260245ffdfea2646970667358221220a804936db453f43592d84572b293793c3e778f61487cfc5bdbf1f372f879ade064736f6c634300081d0033",
  "sourcePath": "/home/dev-araujo/Documents/github/blockchain-projects/personal/go-horse-faucet/smart-contracts/src/GoHorse.sol",
  "compiler": {
    "name": "solc",
    "version": "0.8.29+commit.ab55807c"
  },
  "functionHashes": {
    "MAX_SUPPLY()": "32cb6b0c",
    "allowance(address,address)": "dd62ed3e",
    "approve(address,uint256)": "095ea7b3",
    "balanceOf(address)": "70a08231",
    "decimals()": "313ce567",
    "feeRecipient()": "46904840",
    "getMaxSupply()": "4c0f38c2",
    "getMetadataUrl()": "b03e7592",
    "getTotalMinted()": "0ca1c5c9",
    "mint(address,uint256)": "40c10f19",
    "mintFee()": "13966db5",
    "name()": "06fdde03",
    "owner()": "8da5cb5b",
    "renounceOwnership()": "715018a6",
    "setFeeRecipient(address)": "e74b981b",
    "setMintFee(uint256)": "eddd0d9c",
    "symbol()": "95d89b41",
    "totalSupply()": "18160ddd",
    "transfer(address,uint256)": "a9059cbb",
    "transferFrom(address,address,uint256)": "23b872dd",
    "transferOwnership(address)": "f2fde38b"
  },
  "gasEstimates": {
    "creation": {
      "codeDepositCost": "639000",
      "executionCost": "infinite",
      "totalCost": "infinite"
    },
    "external": {
      "MAX_SUPPLY()": "307",
      "allowance(address,address)": "2947",
      "approve(address,uint256)": "24325",
      "balanceOf(address)": "2647",
      "decimals()": "285",
      "feeRecipient()": "2478",
      "getMaxSupply()": "373",
      "getMetadataUrl()": "865",
      "getTotalMinted()": "2300",
      "mint(address,uint256)": "infinite",
      "mintFee()": "2322",
      "name()": "infinite",
      "owner()": "2566",
      "renounceOwnership()": "28324",
      "setFeeRecipient(address)": "28059",
      "setMintFee(uint256)": "25856",
      "symbol()": "infinite",
      "totalSupply()": "2344",
      "transfer(address,uint256)": "51084",
      "transferFrom(address,address,uint256)": "75567",
      "transferOwnership(address)": "28608"
    }
  }
}